:020000040800F2
:1080000010340020B1820008FF860008D5850008E2
:10801000FD860008358500084D9600080000000028
:108020000000000000000000000000000D820008B9
:10803000378500080000000051820008398E0008D2
:10804000CB820008CB820008CB820008F98A0008A6
:10805000CB820008CB820008CB820008CB820008CC
:10806000CB820008CB820008CB820008CB820008BC
:10807000CB820008CB820008CB820008CB820008AC
:10808000CB820008CB820008CB820008CB8200089C
:10809000CB820008CB820008CB820008CB8200088C
:1080A000CB820008CB820008CB820008CB8200087C
:1080B000A58E0008CB820008CB820008CB82000886
:1080C000CB820008CB820008CB820008CB8200085C
:1080D000CB8200083991000865920008CB82000825
:1080E000CB820008CB820008CB820008CB8200083C
:1080F000CB820008CB820008CB820008CB8200082C
:10810000CB820008CB820008CB820008CB8200081B
:1081100009900008CB820008CB820008CB820008BF
:10812000CB820008CB820008CB820008CB820008FB
:1081300000F002F800F05AF80AA090E8000C82441F
:108140008344AAF10107DA4501D100F04FF8AFF2FC
:10815000090EBAE80F0013F0010F18BFFB1A43F025
:1081600001031847041C0000241C00000A444FF0BF
:10817000000C10F8013B13F0070408BF10F8014B86
:108180001D1108BF10F8015B641E05D010F8016BCB
:10819000641E01F8016BF9D113F0080F1EBF10F82F
:1081A000014BAD1C0C1B09D16D1E58BF01F801CB52
:1081B000FAD505E014F8016B01F8016B6D1EF9D5D5
:1081C0009142D6D3704700000023002400250026EA
:1081D000103A28BF78C1FBD8520728BF30C148BF2A
:1081E0000B6070471FB51FBD10B510BD00F05CF9E6
:1081F0001146FFF7F7FF01F043FB00F07AF903B4F3
:10820000FFF7F2FF03BC01F097FA0000204B19685A
:108210000868B0E8F00F80F30988BFF36F8F4FF064
:10822000000080F311884EF00D0E70470000000032
:1082300006480068006880F3088862B661B6BFF33C
:108240004F8FBFF36F8F00DF00BF00BF08ED00E06E
:10825000EFF30980BFF36F8F0D4B1A6820E9F00F21
:10826000106008B54FF0BF0080F3118801F064FC86
:108270004FF0000080F31188BDE8084019680868D5
:10828000B0E8F00F80F30988BFF36F8F704700BF2D
:10829000C4020020EFF311804FF0BF0181F3118879
:1082A000704780F311887047EFF305807047000036
:1082B0000948804709480047FEE7FEE7FEE7FEE77A
:1082C000FEE7FEE7FEE7FEE7FEE7FEE704480549B6
:1082D000054A064B70470000558E000831810008A2
:1082E000101C002010340020101E0020101E002042
:1082F000704730B505460B462A4613F8014B12F875
:10830000010B08B1A042F8D01CB1002802D06D1CAE
:10831000F1E7284630BD032A40F2308010F0030C0C
:1083200000F0158011F8013BBCF1020F624498BFC8
:1083300011F801CB00F8013B38BF11F8013BA2F165
:10834000040298BF00F801CB38BF00F8013B11F0E0
:10835000030300F02580083AC0F0088051F8043B80
:10836000083A51F804CBA0E80810F5E7121D5CBFED
:1083700051F8043B40F8043BAFF30080D20724BF20
:1083800011F8013B11F801CB48BF11F8012B24BFB4
:1083900000F8013B00F801CB48BF00F8012B704703
:1083A00010B5203AC0F00B80B1E81850203AA0E890
:1083B0001850B1E81850A0E81850BFF4F5AF5FEAC4
:1083C000027C24BFB1E81850A0E8185044BF18C977
:1083D00018C0BDE810405FEA827C24BF51F8043B1E
:1083E00040F8043B08BF7047D20728BF31F8023B72
:1083F00048BF11F8012B28BF20F8023B48BF00F806
:10840000012B70474FF000020429C0F0128010F0D9
:10841000030C00F01B80CCF1040CBCF1020F18BF60
:1084200000F8012BA8BF20F8022BA1EB0C0100F0F3
:108430000DB85FEAC17C24BF00F8012B00F8012BC6
:1084400048BF00F8012B70474FF0000200B51346FB
:1084500094469646203922BFA0E80C50A0E80C5064
:10846000B1F12001BFF4F7AF090728BFA0E80C5015
:1084700048BF0CC05DF804EB890028BF40F8042B0E
:1084800008BF704748BF20F8022B11F0804F18BF7B
:1084900000F8012B70477047704770477047000025
:1084A00000487047AC1B00207546FFF7F9FFAE4649
:1084B00005006946534620F00700854618B020B5F0
:1084C000FFF704FFBDE820404FF000064FF0000723
:1084D0004FF000084FF0000B21F00701AC46ACE86C
:1084E000C009ACE8C009ACE8C009ACE8C0098D46D9
:1084F00070470446AFF300802046FFF780FE00F08F
:1085000079B810B5012000F0B3F9BDE810400020A3
:1085100000F0AEB908B5024908440090008808BDD3
:10852000006C004008B5024A10440090016008BD8C
:10853000006C0040FEE77047F0B5CC78002204F0F4
:108540000F03E40601D58C7823430C784FF00F0C11
:108550004FF0010EDCB105680E880EFA02F42640D9
:10856000A64210D196000CFA06F725EA070703FA8F
:1085700006F5CE783D43282E02D0482E02D002E0E8
:10858000446100E00461521C082AE5D305600A88B2
:10859000FF2A1CD94468002202F108060EFA06F5EB
:1085A0000E882E40AE420ED196000CFA06F7BC4360
:1085B00003FA06F7CE783C43282E00D14561CE78E9
:1085C000482E00D10561521C082AE5D34460F0BD55
:1085D0000161704771B605480168054A01F4E06120
:1085E00011430160BFF3408FFEE700000CED00E097
:1085F0000400FA0538B50121082000F021F94FF4F4
:10860000C040ADF8000010208DF803000320084C96
:108610008DF8020069462046FFF78EFF4FF4804137
:108620002046FFF7D5FF61142046FFF7D1FF38BD84
:10863000000C014002494CF6CC4008607047000035
:108640000030004070B504460D4645F2555000F02C
:1086500021F8204600F012F8284600F015F800F046
:1086600005F8BDE87040FFF7E5BF000002494AF693
:10867000AA200860704700000030004001494860AF
:1086800070470000003000400149886070470000DA
:108690000030004001490860704700000030004091
:1086A000810705D16421B0FBF1F201FB120141B950
:1086B0004FF4C871B0FBF1F201FB120008B10020C9
:1086C000704701207047000008B50121042000F028
:1086D000B7F88020ADF8000010208DF803000320CB
:1086E0008DF8020069460348FFF726FF0249012082
:1086F000086008BD000801409C012142FEE7704768
:10870000F8B54FF4407000F073F803268DF8006060
:1087100000248DF801408DF8024001258DF80350AA
:10872000684600F033F825208DF800008DF80150E0
:108730008DF802408DF80350684600F027F8262097
:108740008DF8000002208DF801008DF802408DF8B0
:108750000350684600F01AF834208DF800008DF8B8
:1087600001608DF802408DF80350684600F00EF865
:108770001C208DF8000004208DF801008DF80240C7
:108780008DF80350684600F001F8F8BD70B50F236E
:10879000C278017801244FF0E025DAB1124A12685C
:1087A00002F4E062C2F5E062120AC2F10406D340AC
:1087B0004278B24086781E400C4B16433201CA54B0
:1087C000007800F01F018C40400905EB8000C0F8E4
:1087D000004170BD01F01F008440480905EB800096
:1087E000C0F8804170BD00000CED00E000E400E046
:1087F0000249084302490860704700000000FA057A
:108800000CED00E0014908627047000000000E42D4
:10881000044A0029D16901D0014300E08143D161BC
:108820007047000000100240044A0029116901D07D
:10883000014300E0814311617047000000100240D5
:10884000044A0029916901D0014300E0814391610C
:108850007047000000100240044A0029D16801D08E
:10886000014300E08143D1607047000000100240E6
:1088700001490860704700004004424230B5204A78
:108880005168204B11F00C0103D0042901D00829B4
:1088900001D0036012E05168536801F470114FF089
:1088A000020413F4803F04EB914102D053689B0310
:1088B00001D5154B00E0134B5943016051680F235C
:1088C00003EA1111114B5C5C0168E140416054689E
:1088D000072505EA14241C5D21FA04F48460546819
:1088E00005EAD4241B5DD940C1605268032303EA22
:1088F0009232064B1B1F9A5CB1FBF2F1016130BD55
:108900000010024000127A0000093D00A802002079
:10891000034600205909094A01290AD002290AD030
:10892000516A03F01F02012393400B4200D0012043
:1089300070471168F5E7116AF3E700000010024084
:108940000649002281F8202081F82020012802D049
:10895000042802D1052081F8200070470010024051
:1089600001490860704700003C04424202490A6A1B
:1089700002430A62704700000010024002490A8860
:1089800082430A80704700000428004002480188A2
:1089900041F010010180704704280040024801881E
:1089A00021F0100101807047042800402DE9F047B4
:1089B00000F062F8054600F015FADFF8AC902B489D
:1089C000B5FBF9F301882A4E1F4699422ED0038049
:1089D00040F2B2744FF4B7784FF4B67A0CE0204608
:1089E000FFF75EFE20B1434508D3A3F5B77301E05E
:1089F000A3F26D13641CA4B25345F0D8B4800024D4
:108A0000DFF870800CE0B088FFF74AFE08B1012C57
:108A100025D018F80400984204D81B1A641CA4B28C
:108A20001C2BF0D2641CB4715B1CF37109FB175052
:108A30004FF46162B0FBF2F1317002FB11013C2294
:108A4000B1FBF2F0707002FB1010B070F279B179E6
:108A5000B08800F02BF830720020BDE8F0871D2BA5
:108A6000E0D31D3BDAE700008051010064020020E2
:108A7000100300205C9D0008034800880249091F7C
:108A8000098840EA014070471C28004006490988CF
:108A9000C2B21140044A121F1288024202D009B128
:108AA00001207047002070470428004030B564253D
:108AB000B0FBF5F3DCB205FB1300132C01D96430D5
:108AC000C0B200EB90030724B3FBF4F504FB1533AD
:108AD000084D1A440D44800715F8015C2A4492B2EF
:108AE00003D1032901D2521E92B2B2FBF4F004FB6F
:108AF000102030BD509D000810B50120FFF7C6FFC3
:108B000008B1FFF753FF0520FFF738FFBDE810401D
:108B100000F000B9044A0029118801D0014300E0A7
:108B20008143118070470000002800407CB500247C
:108B300001214FF0C050FFF76BFE0120FFF762FEEE
:108B40000420FFF7E7FC45F25005A84245D0FFF7A7
:108B5000D8FC0120FFF7F4FE04E0641CE4B20A2014
:108B600000F006FE4120FFF7D3FE0028F5D0FA2CD6
:108B700001D301207CBD4FF48070FFF7F7FE012088
:108B8000FFF7EEFE00F0C6F800F0CCF8012102205D
:108B9000FFF7C0FF00F0BEF800F0C4F8012108465E
:108BA000FFF7B8FF00F0B6F8FFF7F0FE47F6FF70EA
:108BB00000F0A0F800F0AEF8012000900246014657
:108BC000019000234FF4FA6000F01CF8FFF7E6FE76
:108BD00029460420FFF7A6FC0FE000F0A3F80121CE
:108BE0000846FFF797FF00F095F800F09BF8012189
:108BF0000220FFF78FFF00F08DF8FFF7D7FE00206F
:108C00007CBD00002DE9F05F9A4605460023A0F2E6
:108C1000B270DDF828B091468846822802D3012040
:108C2000BDE8F09F40F2B274264E274F08E0204680
:108C3000FFF736FD08B1334400E03B44641CA4B2A6
:108C4000AC42F4D3A8F10100C6B200241F4FDFF8F4
:108C500080800EE0385D40F2A321484303EBC0134F
:108C60002846FFF71DFD10B1012C00D14344641CC0
:108C7000A4B2B442EED340F2A32109FB01F014499F
:108C800003EBC01049420144CAEB4A12C2EB0A206E
:108C900001EB0011CBEB0B1001EB80000B9944189A
:108CA00001214FF0C050FFF7B3FD0120FFF7AAFDEF
:108CB000204600F00FF800F02DF8FFF777FE0020B7
:108CC000AEE700000085E2018033E1015C9D000811
:108CD0008051010000B50246FFF758FE0449100C10
:108CE0000880081D02805DF804EBFFF757BE000006
:108CF0001828004000B50246FFF748FE0449C2F3B9
:108D000003400880081D02805DF804EBFFF746BEB3
:108D100008280040024801888906FCD570470000F9
:108D2000042800400448018821F0080101800188DE
:108D30000907FCD570470000042800400CB500224C
:108D4000264800920192016841F4803101604FF49D
:108D5000A063016801F4003101910099491C009160
:108D6000019911B900999942F3D10168890333D56A
:108D7000012101911A490A6842F010020A600A684A
:108D800022F003020A600A6842F002020A604168A7
:108D9000416041684160416841F4806141604168DF
:108DA00021F47C114160416841F4E811416001689F
:108DB00041F08071016001688901FCD5416821F0B2
:108DC00003014160416841F0020141604168C1F323
:108DD00081010229FAD10CBD01920CBD00100240A4
:108DE000002002400149C8617047000000000020D7
:108DF00002488169491C8161704700000000002021
:108E000002484169491C4161704700000000002090
:108E100002480169491C0161704700000000002000
:108E20004FF0E0210428086903D020F00400086115
:108E3000704740F00400FAE710B5FFF7E9FF044877
:108E40000068012803D1BDE8104000F0A3BE10BDAA
:108E5000D80200200F4810B5016841F001010160FF
:108E600041680D4A1140416001680C4A114001609F
:108E7000016821F480210160416821F4FE01416014
:108E80004FF41F018160FFF759FF05494FF0006063
:108E9000086010BD001002400000FFF8FFFFF6FE62
:108EA00008ED00E010B501218C07204600F049F8DC
:108EB000002816D00121204600F036F8FFF7A0FF69
:108EC00000F0EEFB00F026FC06490879401CC0B219
:108ED00008710A2805D300200871BDE81040FFF78B
:108EE00087BF10BD660200203EB50D460446012135
:108EF0000846FFF78DFCADF804400020ADF80050A7
:108F0000ADF80600ADF802004FF0804469462046F7
:108F100000F02CF801221146204600F01EF8012135
:108F2000204600F004F83EBDC94301827047002985
:108F3000018802D041F0010101E021F0010101802E
:108F4000704702460020138A92890B4202EA01020E
:108F500002D0002A00D001207047002A828901D067
:108F60000A4300E08A4382817047000030B50288DE
:108F70001B4C1C4DA0420DD0A8420BD0B0F1804F2D
:108F800008D0194B984205D0184B984202D0184B84
:108F9000984203D122F070034A881A43154B984235
:108FA00006D0154B984203D022F44073CA881A4366
:108FB00002808A8882850A880285A0420AD0A84257
:108FC00008D00E4A904205D00D4A904202D00D4A78
:108FD000904201D1097A01860121818230BD0000D1
:108FE000002C014000340140000400400008004013
:108FF000000C004000100040001400400040014000
:10900000004401400048014010B5224C40F2255177
:10901000204600F082FA68B1204600F00FFBC2B291
:109020001D48018A802905D2C3781BB91B4B5A54AD
:10903000491C018240F22661204600F06EFA18B108
:10904000BDE8104000F03EBB0821204600F05EFA6B
:1090500020B1204600F0F2FA082114E00421204655
:1090600000F054FA08B104210DE00221204600F07E
:109070004DFA08B1022106E00121204600F046FA2F
:10908000002805D001212046BDE8104000F0F6B9C7
:1090900010BD0000004C0040660200201A050020B0
:1090A00070B5234D044686B00021284600F0E9F94A
:1090B00001211020FFF7C4FB0121C804FFF7A8FB22
:1090C000284600F0E9F92815ADF8100003208DF8C6
:1090D00012001820174E8DF8130004A93046FFF730
:1090E0002BFAE814ADF8100004208DF8130004A941
:1090F0003046FFF721FA0020ADF80400ADF8060075
:10910000ADF80800ADF80C000C20ADF80A00009492
:109110006946284600F038FA012240F225512846D7
:1091200000F01AFA0121284600F0ABF906B070BD34
:10913000004C00400010014010B5224C40F2255177
:10914000204600F0EAF968B1204600F077FAC2B292
:109150001D48C188FF2905D843781BB91B4B5A54B9
:10916000491CC18040F22661204600F0D6F918B1B2
:10917000BDE8104000F06CBA0821204600F0C6F9A6
:1091800020B1204600F05AFA082114E004212046BC
:1091900000F0BCF908B104210DE00221204600F0E6
:1091A000B5F908B1022106E00121204600F0AEF930
:1091B000002805D001212046BDE8104000F05EB92E
:1091C00010BD000000380140660200201A03002094
:1091D00070B5224D044686B00021284600F051F9B2
:1091E000012144F20400FFF72BFB284600F054F95C
:1091F0006815ADF8100003208DF812001820184EE5
:109200008DF8130004A93046FFF796F92815ADF83C
:10921000100004208DF8130004A93046FFF78CF9E4
:109220000020ADF80400ADF80600ADF80800ADF878
:109230000C000C20ADF80A0000946946284600F0A6
:10924000A3F9012240F22551284600F085F90121B9
:10925000284600F016F906B070BD00000038014045
:109260000008014070B5304C208804F1040100076B
:1092700001D0088870BD208840F2244580060FD5B3
:1092800009882A4800F09CFB284800F08CFB012844
:10929000F0D129462046BDE87040012200F05CB9BB
:1092A00022882046D206E5D5028809880022294670
:1092B00000F052F91D4C1EA12068FFF71AF81F4D4F
:1092C00048B1204600F06FFB81B295F90100226899
:1092D00000F0B2FA22E01AA12068FFF70AF818B1EC
:1092E0001A490520087019E019A12068FFF701F854
:1092F000A0B91AA12068FEF7FCFF78B901202870F8
:109300000A4D20890C352881E088E880074800F064
:109310004AFB024621682868FEF7FDFFBDE8704061
:10932000024800F039BB0000004400401C06002049
:109330002B4E534F4E4D493A000000008002002052
:109340002B4E534F434C493A00000000500200207E
:109350002B43455245473A30000000002B4345520D
:1093600045473A3100000000F0B5074685B00121BD
:109370000420FFF765FA01214804FFF749FA284D58
:10938000284600F089F80424ADF8104003208DF839
:1093900012001820234E8DF8130004A93046FFF761
:1093A000CBF80820ADF810008DF8134004A9304622
:1093B000FFF7C2F80021ADF80410ADF80610ADF8C3
:1093C0000810ADF80C100C201749ADF80A00E401A4
:1093D00000972246A1F1180000F0EBFA134922464B
:1093E000A1F5037000F0E5FA114800F001FA104908
:1093F000091F0A4648700C490E480C3900F0C4FA9F
:109400006946284600F0C0F8012240F2255128465E
:1094100000F0A2F80121284600F033F805B0F0BDB5
:1094200000440040000801403406002034080020B9
:1094300084020020399400082DE9F0410D4F0E46BA
:1094400005464021384600F019F800240BE015F8D5
:10945000011B384600F0F6F84021384600F056F877
:109460000028F9D0641CB442F1D3034900200870ED
:10947000BDE8F0810044004080020020C943018023
:1094800070470029818902D041F4005101E021F4A4
:109490000051818170470000174910B588420AD1F8
:1094A00001218C032046FFF7D7F92046BDE8104084
:1094B0000021FFF7D1B91149884202D101214C04A2
:1094C00010E00F49884202D101218C040AE00D49C5
:1094D000884202D10121CC0404E00B4988420AD120
:1094E00001210C052046FFF79FF92046BDE81040FA
:1094F0000021FFF799B910BD003801400044004039
:1095000000480040004C004000500040024600204F
:1095100012880A4200D00120704770B501F01F0583
:1095200001260024C1F3421306FA05F2012B0FD0E5
:10953000022B0FD0838A4FEA11210088134206FACA
:1095400001F600EA060001D000B10124204670BDFA
:109550008389F0E7038AEEE710B5C1F3421301F007
:109560001F040121A140012B07D0022B07D014308A
:10957000002A026805D00A4304E00C30F8E71030F6
:10958000F6E78A43026010BD30B50446008A85B014
:109590000D464CF6FF710840E98801432182A089FD
:1095A0004EF6F3110840A9882A8911436A890243BB
:1095B0001143A181A08A4FF6FF410840A9890143C8
:1095C000A1826846FFF75AF91B48844201D10398EB
:1095D00000E00298A1890904002900EBC00101EB19
:1095E0000010296802DA4FEA410101E04FEA8101E7
:1095F000B0FBF1F06422B0FBF2F14FEA01114FEA47
:1096000011136FF018056B4300EB8300A3891D0451
:109610004FF0320306D503EBC000B0FBF2F000F0D0
:10962000070005E003EB0010B0FBF2F000F00F00C4
:109630000843208105B030BD003801408088C0F368
:1096400008007047C1F3080181807047FEE7000001
:1096500070B5114C0F48114DE189415C2846FFF768
:10966000F1FFE089401C81B2E181A08981420FD3E2
:1096700000206070A081E081024640F22661284609
:10968000FFF76AFFA915BDE870400248FEF7BABEB1
:1096900070BD00001A04002066020020003801405E
:1096A0000749C888002808D00A89824206D1488123
:1096B00000200881C880AA20087070470881704780
:1096C0006602002070B5114C0F48114D218B415C92
:1096D0002846FFF7B7FF208B401C81B22183E08A28
:1096E00081420FD30020E070E0822083024640F2E6
:1096F00026612846FFF730FFBDE870408021024810
:10970000FEF780BE70BD00009A05002066020020B2
:10971000004C00400749088A002808D04A8A824243
:1097200006D18882002048820882AA20887070476B
:1097300048827047660200207047000010B504465A
:109740000420FFF76DFB09484FF47A7144604C43E5
:10975000012101804FF0E021086940F0020008611A
:109760004C61086940F00100086110BD5C020020F6
:1097700070B504460B48006860B10B4D28888442E0
:1097800003D3B4FBF0F000F09BF92888B4FBF0F1B0
:1097900000FB11444FF47A706043BDE8704000F064
:1097A00005B80000D80200205C0200202DE9F0413D
:1097B0004FF0E02700247E690C49496800FB01F561
:1097C00000F0B2F9B969B8698842FCD002D2A1EBC5
:1097D000000102E0A6EB000211440C440146AC4239
:1097E000F1D3BDE8F04100F051BA00005C02002066
:1097F000034610B500200F49024601F83020401CF6
:1098000040B20A28F9DB002411F8340030B1641C9E
:1098100064B20A2CF8DB4FF0FF3010BD012001F8D4
:10982000340001EBC4004360184600F074F8204691
:1098300010BD0000441A002070B514460D460A28D9
:1098400002D34FF0FF3070BD0C4901EBC0067068C9
:1098500000F04EF870B171680988891E89B28D4296
:1098600000D8294620F8021B0A462146FEF753FD80
:10987000002070BD6FF0010070BD0000441A002090
:1098800019491848086040F271210520FEF7DAFEF8
:109890001648FEF7F3FF012080F31088FEF730FF33
:1098A0004820FFF74BFFFFF741F9FEF728FEFEF7D0
:1098B0000BFF41F61F416320FFF716FB4FF4E13029
:1098C000FFF786FC4FF416542046FFF74DFD204667
:1098D000FFF7E6FB002080F310886420FFF748FFC5
:1098E000FBE700000080000808ED00E0FC0200201B
:1098F0000021428803E043685B5C23B1491C8A4233
:10990000F9DC0020704742680123535482680088C4
:1099100001FB0020704710B5044641884068FEF7FF
:1099200071FD218860884143A068BDE81040FEF7C2
:1099300069BD000070B50B4D044628684460E868B6
:109940002968844201F1040104D2686BBDE87040CB
:1099500000F05AB8286B00F057F8A86A844200D289
:10996000AC6270BDC40200200648016B096829B1D1
:10997000016BC968C9684968816270474FF0FF315F
:10998000FAE70000C4020020024B9960C3E900021C
:1099900070470000980200200021C1800181818869
:1099A0000068FEF72FBDC18802898088891A0840A7
:1099B0007047521E016082800021C1800181704782
:1099C00010B5C2880389D41A8388A34308D00368DA
:1099D0009954C1888288491C1140C180012010BD62
:1099E000002010BDD0E9013201699A60D0E901235D
:1099F0005A604A68824201D182684A60002202614C
:109A00000868401E0860704730B50C68621C02D0C0
:109A100000F1080202E0026904E01A4653681D687A
:109A2000A542FAD953684B6099608A605160086119
:109A30000168491C016030BD42684A6093688B60D0
:109A400093685960916008610168491C0160704722
:109A5000BF2080F31188BFF34F8FBFF36F8F0C4887
:109A60004168491CBFF34F8FBFF36F8F41600129DD
:109A70000CD10848006810F0FF0F07D0BF2080F31A
:109A80001188BFF34F8FBFF36F8FFEE77047000061
:109A9000B802002004ED00E00849486828B1401EE3
:109AA000486001D180F311887047BF2080F311888E
:109AB000BFF34F8FBFF36F8FFEE70000B8020020A7
:109AC00070B5020022D0164CE06A38B1BF2080F396
:109AD0001188BFF34F8FBFF36F8FFEE700F024F8BC
:109AE000E06885182068001DFFF77CFF38B9206802
:109AF00090F82C100120884021698143216128467B
:109B0000FFF718FF00F0C2F8002807D105494FF011
:109B100080500860BFF34F8FBFF36F8F70BD0000A0
:109B2000C402002004ED00E00248C16A491CC16281
:109B300070470000C4020020144AD06A10B101200E
:109B4000D06170470020D06110691149B0FA80F0EF
:109B5000C0F11F0000EB800051F820306BB101EB29
:109B6000800000F10803416849684160994201D1D1
:109B700049684160C86810607047BF2080F3118851
:109B8000BFF34F8FBFF36F8FFEE70000C4020020CA
:109B9000941A002010B5BF2080F31188BFF34F8FB7
:109BA000BFF36F8F00F00CF818B104494FF08050EC
:109BB0000860002080F3118810BD000004ED00E073
:109BC0002DE9F0412F4F0025F86A40B1B869401CDB
:109BD000B861F86900B101252846BDE8F081F86850
:109BE000401CF860FE689EB9386B006838B1BF2031
:109BF00080F31188BFF34F8FBFF36F8FFEE7386B91
:109C0000796B39637863386A401C3862FFF7ACFEC1
:109C1000B86ADFF87480864209D3386B006880B177
:109C2000386BC068C468606886420DD2B862386814
:109C3000C06A00EB800158F821000128C9D901252C
:109C4000C7E74FF0FF30F1E7201DFFF7CBFEA06A1A
:109C500018B104F11800FFF7C5FEE06A01213A6966
:109C600081401143396100EB800108EB8100211D27
:109C7000FFF7E2FEE06A3968C96A8842CDD3012560
:109C8000CBE70000C4020020941A00202DE9F04721
:109C90002C4D0027E86A38B1FFF7DAFEE86A401E6B
:109CA000E862E86A40B147E0BF2080F31188BFF363
:109CB0004F8FBFF36F8FFEE7A86823490126D8B303
:109CC000A1F1DC098846D8F80010E9B1D8F80C00F9
:109CD000C46804F11800FFF785FE201DFFF782FE1F
:109CE000E06A2A6906FA00F11143296100EB80015C
:109CF00009EB8100211DFFF79FFEE06A2968C96A10
:109D00008842E0D3EE61DEE7A86938B909E0FFF7E1
:109D100057FF00B1EE61A869401EA861A86900283C
:109D2000F5D1E869012807D1084901270007086033
:109D3000BFF34F8FBFF36F8FFFF7AEFE3846BDE81E
:109D4000F0870000C4020020701B002004ED00E03A
:109D50000003030601040602050003051F1C1F1E65
:109D60001F1E1F1F1E1F1E1F889D000800000020B1
:109D7000FC0200006C810008E09E0008FC0200204C
:109D800014310000C88100084112013A080602445B
:109D9000142808C1814001C0804104690C2908E9E8
:109DA00018A91C091A30091638093660092E7009DD
:109DB0002F6000FF00C0C101C30302C2C60607C76F
:109DC00005C5C404CC0C0DCD0FCFCE0E0ACACB0BEB
:109DD000C90908C8D81819D91BDBDA1A1EDEDF1F1B
:109DE000DD1D1CDC14D4D515D71716D6D21213D30B
:109DF00011D1D010F03031F133F3F23236F6F737BB
:109E0000F53534F43CFCFD3DFF3F3EFEFA3A3BFBAA
:109E100039F9F83828E8E929EB2B2AEAEE2E2FEF5A
:109E20002DEDEC2CE42425E527E7E62622E2E323CA
:109E3000E12120E0A06061A163A3A26266A6A767FA
:109E4000A56564A46CACAD6DAF6F6EAEAA6A6BAB6A
:109E500069A9A86878B8B979BB7B7ABABE7E7FBF9A
:109E60007DBDBC7CB47475B577B7B67672B2B3738A
:109E7000B17170B05090915193535292965657973A
:109E8000559594549C5C5D9D5F9F9E5E5A9A9B5B2A
:109E900099595898884849894B8B8A4A4E8E8F4FDA
:109EA0008D4D4C8C4484854587474686824243834A
:109EB000418180052E40FFFF6322FF140202081338
:109EC00090021420340A02142045020406082D01D1
:109ED0000203040445060708091AAA01013C000010
:04000005080081313D
:00000001FF
